{
  "contractName": "KYC",
  "abi": [
    {
      "inputs": [],
      "stateMutability": "nonpayable",
      "type": "constructor"
    },
    {
      "inputs": [
        {
          "internalType": "uint256",
          "name": "",
          "type": "uint256"
        }
      ],
      "name": "citizensAdded",
      "outputs": [
        {
          "internalType": "address",
          "name": "",
          "type": "address"
        }
      ],
      "stateMutability": "view",
      "type": "function"
    },
    {
      "inputs": [
        {
          "internalType": "address",
          "name": "",
          "type": "address"
        }
      ],
      "name": "kycDatabase",
      "outputs": [
        {
          "internalType": "address",
          "name": "id",
          "type": "address"
        },
        {
          "internalType": "string",
          "name": "name",
          "type": "string"
        },
        {
          "internalType": "string",
          "name": "aadhar",
          "type": "string"
        },
        {
          "internalType": "string",
          "name": "homeAddr",
          "type": "string"
        }
      ],
      "stateMutability": "view",
      "type": "function"
    },
    {
      "inputs": [
        {
          "internalType": "address",
          "name": "_id",
          "type": "address"
        },
        {
          "internalType": "string",
          "name": "_name",
          "type": "string"
        },
        {
          "internalType": "string",
          "name": "_aadhar",
          "type": "string"
        },
        {
          "internalType": "string",
          "name": "_homeAddr",
          "type": "string"
        }
      ],
      "name": "addCitezenDetails",
      "outputs": [
        {
          "internalType": "bool",
          "name": "success",
          "type": "bool"
        }
      ],
      "stateMutability": "nonpayable",
      "type": "function"
    },
    {
      "inputs": [
        {
          "internalType": "address",
          "name": "_id",
          "type": "address"
        }
      ],
      "name": "addAllowed",
      "outputs": [
        {
          "internalType": "bool",
          "name": "success",
          "type": "bool"
        }
      ],
      "stateMutability": "nonpayable",
      "type": "function"
    },
    {
      "inputs": [],
      "name": "getAllCitizenAddress",
      "outputs": [
        {
          "internalType": "address[]",
          "name": "",
          "type": "address[]"
        }
      ],
      "stateMutability": "view",
      "type": "function"
    },
    {
      "inputs": [
        {
          "internalType": "address",
          "name": "_id",
          "type": "address"
        }
      ],
      "name": "getCitizenDetailsbyAddress",
      "outputs": [
        {
          "components": [
            {
              "internalType": "address",
              "name": "id",
              "type": "address"
            },
            {
              "internalType": "string",
              "name": "name",
              "type": "string"
            },
            {
              "internalType": "string",
              "name": "aadhar",
              "type": "string"
            },
            {
              "internalType": "string",
              "name": "homeAddr",
              "type": "string"
            },
            {
              "internalType": "address[]",
              "name": "allowed",
              "type": "address[]"
            }
          ],
          "internalType": "struct KYC.citizensDetails",
          "name": "",
          "type": "tuple"
        }
      ],
      "stateMutability": "view",
      "type": "function"
    },
    {
      "inputs": [
        {
          "internalType": "address",
          "name": "_id",
          "type": "address"
        }
      ],
      "name": "getCitizenAddrbyChecking",
      "outputs": [
        {
          "components": [
            {
              "internalType": "address",
              "name": "id",
              "type": "address"
            },
            {
              "internalType": "string",
              "name": "name",
              "type": "string"
            },
            {
              "internalType": "string",
              "name": "aadhar",
              "type": "string"
            },
            {
              "internalType": "string",
              "name": "homeAddr",
              "type": "string"
            },
            {
              "internalType": "address[]",
              "name": "allowed",
              "type": "address[]"
            }
          ],
          "internalType": "struct KYC.citizensDetails",
          "name": "",
          "type": "tuple"
        }
      ],
      "stateMutability": "view",
      "type": "function"
    }
  ],
  "bytecode": "0x608060405234801561001057600080fd5b50336000806101000a81548173ffffffffffffffffffffffffffffffffffffffff021916908373ffffffffffffffffffffffffffffffffffffffff160217905550611632806100606000396000f3fe608060405234801561001057600080fd5b506004361061007d5760003560e01c806392af85471161005b57806392af854714610103578063c04799c514610133578063cb8523c614610163578063ef787e74146101935761007d565b8063141f4059146100825780631ae2ebe0146100b257806350ba2874146100e5575b600080fd5b61009c6004803603610097919081019061106c565b6101c3565b6040516100a99190611419565b60405180910390f35b6100cc60048036036100c7919081019061106c565b6105b9565b6040516100dc9493929190611382565b60405180910390f35b6100ed6107d1565b6040516100fa91906113dc565b60405180910390f35b61011d6004803603610118919081019061106c565b61085f565b60405161012a9190611419565b60405180910390f35b61014d60048036036101489190810190611140565b610b82565b60405161015a9190611367565b60405180910390f35b61017d6004803603610178919081019061106c565b610bbe565b60405161018a91906113fe565b60405180910390f35b6101ad60048036036101a89190810190611095565b610c6c565b6040516101ba91906113fe565b60405180910390f35b6101cb610e37565b60008090505b6002805490508110156105b2573373ffffffffffffffffffffffffffffffffffffffff16600160008573ffffffffffffffffffffffffffffffffffffffff1673ffffffffffffffffffffffffffffffffffffffff168152602001908152602001600020600401828154811061024257fe5b9060005260206000200160009054906101000a900473ffffffffffffffffffffffffffffffffffffffff1673ffffffffffffffffffffffffffffffffffffffff1614156105a557600160008473ffffffffffffffffffffffffffffffffffffffff1673ffffffffffffffffffffffffffffffffffffffff1681526020019081526020016000206040518060a00160405290816000820160009054906101000a900473ffffffffffffffffffffffffffffffffffffffff1673ffffffffffffffffffffffffffffffffffffffff1673ffffffffffffffffffffffffffffffffffffffff168152602001600182018054600181600116156101000203166002900480601f0160208091040260200160405190810160405280929190818152602001828054600181600116156101000203166002900480156103c25780601f10610397576101008083540402835291602001916103c2565b820191906000526020600020905b8154815290600101906020018083116103a557829003601f168201915b50505050508152602001600282018054600181600116156101000203166002900480601f0160208091040260200160405190810160405280929190818152602001828054600181600116156101000203166002900480156104645780601f1061043957610100808354040283529160200191610464565b820191906000526020600020905b81548152906001019060200180831161044757829003601f168201915b50505050508152602001600382018054600181600116156101000203166002900480601f0160208091040260200160405190810160405280929190818152602001828054600181600116156101000203166002900480156105065780601f106104db57610100808354040283529160200191610506565b820191906000526020600020905b8154815290600101906020018083116104e957829003601f168201915b505050505081526020016004820180548060200260200160405190810160405280929190818152602001828054801561059457602002820191906000526020600020905b8160009054906101000a900473ffffffffffffffffffffffffffffffffffffffff1673ffffffffffffffffffffffffffffffffffffffff168152602001906001019080831161054a575b5050505050815250509150506105b4565b80806001019150506101d1565b505b919050565b60016020528060005260406000206000915090508060000160009054906101000a900473ffffffffffffffffffffffffffffffffffffffff1690806001018054600181600116156101000203166002900480601f01602080910402602001604051908101604052809291908181526020018280546001816001161561010002031660029004801561068b5780601f106106605761010080835404028352916020019161068b565b820191906000526020600020905b81548152906001019060200180831161066e57829003601f168201915b505050505090806002018054600181600116156101000203166002900480601f0160208091040260200160405190810160405280929190818152602001828054600181600116156101000203166002900480156107295780601f106106fe57610100808354040283529160200191610729565b820191906000526020600020905b81548152906001019060200180831161070c57829003601f168201915b505050505090806003018054600181600116156101000203166002900480601f0160208091040260200160405190810160405280929190818152602001828054600181600116156101000203166002900480156107c75780601f1061079c576101008083540402835291602001916107c7565b820191906000526020600020905b8154815290600101906020018083116107aa57829003601f168201915b5050505050905084565b6060600280548060200260200160405190810160405280929190818152602001828054801561085557602002820191906000526020600020905b8160009054906101000a900473ffffffffffffffffffffffffffffffffffffffff1673ffffffffffffffffffffffffffffffffffffffff168152602001906001019080831161080b575b5050505050905090565b610867610e37565b600160008373ffffffffffffffffffffffffffffffffffffffff1673ffffffffffffffffffffffffffffffffffffffff1681526020019081526020016000206040518060a00160405290816000820160009054906101000a900473ffffffffffffffffffffffffffffffffffffffff1673ffffffffffffffffffffffffffffffffffffffff1673ffffffffffffffffffffffffffffffffffffffff168152602001600182018054600181600116156101000203166002900480601f0160208091040260200160405190810160405280929190818152602001828054600181600116156101000203166002900480156109a05780601f10610975576101008083540402835291602001916109a0565b820191906000526020600020905b81548152906001019060200180831161098357829003601f168201915b50505050508152602001600282018054600181600116156101000203166002900480601f016020809104026020016040519081016040528092919081815260200182805460018160011615610100020316600290048015610a425780601f10610a1757610100808354040283529160200191610a42565b820191906000526020600020905b815481529060010190602001808311610a2557829003601f168201915b50505050508152602001600382018054600181600116156101000203166002900480601f016020809104026020016040519081016040528092919081815260200182805460018160011615610100020316600290048015610ae45780601f10610ab957610100808354040283529160200191610ae4565b820191906000526020600020905b815481529060010190602001808311610ac757829003601f168201915b5050505050815260200160048201805480602002602001604051908101604052809291908181526020018280548015610b7257602002820191906000526020600020905b8160009054906101000a900473ffffffffffffffffffffffffffffffffffffffff1673ffffffffffffffffffffffffffffffffffffffff1681526020019060010190808311610b28575b5050505050815250509050919050565b60028181548110610b8f57fe5b906000526020600020016000915054906101000a900473ffffffffffffffffffffffffffffffffffffffff1681565b6000600160003373ffffffffffffffffffffffffffffffffffffffff1673ffffffffffffffffffffffffffffffffffffffff168152602001908152602001600020600401829080600181540180825580915050600190039060005260206000200160009091909190916101000a81548173ffffffffffffffffffffffffffffffffffffffff021916908373ffffffffffffffffffffffffffffffffffffffff16021790555060019050919050565b6000610c76610e37565b85816000019073ffffffffffffffffffffffffffffffffffffffff16908173ffffffffffffffffffffffffffffffffffffffff168152505084816020018190525083816040018190525082816060018190525080600160008873ffffffffffffffffffffffffffffffffffffffff1673ffffffffffffffffffffffffffffffffffffffff16815260200190815260200160002060008201518160000160006101000a81548173ffffffffffffffffffffffffffffffffffffffff021916908373ffffffffffffffffffffffffffffffffffffffff1602179055506020820151816001019080519060200190610d6c929190610e7c565b506040820151816002019080519060200190610d89929190610e7c565b506060820151816003019080519060200190610da6929190610e7c565b506080820151816004019080519060200190610dc3929190610efc565b509050506002869080600181540180825580915050600190039060005260206000200160009091909190916101000a81548173ffffffffffffffffffffffffffffffffffffffff021916908373ffffffffffffffffffffffffffffffffffffffff1602179055506001915050949350505050565b6040518060a00160405280600073ffffffffffffffffffffffffffffffffffffffff168152602001606081526020016060815260200160608152602001606081525090565b828054600181600116156101000203166002900490600052602060002090601f016020900481019282601f10610ebd57805160ff1916838001178555610eeb565b82800160010185558215610eeb579182015b82811115610eea578251825591602001919060010190610ecf565b5b509050610ef89190610f86565b5090565b828054828255906000526020600020908101928215610f75579160200282015b82811115610f745782518260006101000a81548173ffffffffffffffffffffffffffffffffffffffff021916908373ffffffffffffffffffffffffffffffffffffffff16021790555091602001919060010190610f1c565b5b509050610f829190610fab565b5090565b610fa891905b80821115610fa4576000816000905550600101610f8c565b5090565b90565b610feb91905b80821115610fe757600081816101000a81549073ffffffffffffffffffffffffffffffffffffffff021916905550600101610fb1565b5090565b90565b600081359050610ffd816115ce565b92915050565b600082601f83011261101457600080fd5b813561102761102282611468565b61143b565b9150808252602083016020830185838301111561104357600080fd5b61104e83828461157b565b50505092915050565b600081359050611066816115e5565b92915050565b60006020828403121561107e57600080fd5b600061108c84828501610fee565b91505092915050565b600080600080608085870312156110ab57600080fd5b60006110b987828801610fee565b945050602085013567ffffffffffffffff8111156110d657600080fd5b6110e287828801611003565b935050604085013567ffffffffffffffff8111156110ff57600080fd5b61110b87828801611003565b925050606085013567ffffffffffffffff81111561112857600080fd5b61113487828801611003565b91505092959194509250565b60006020828403121561115257600080fd5b600061116084828501611057565b91505092915050565b60006111758383611181565b60208301905092915050565b61118a81611533565b82525050565b61119981611533565b82525050565b60006111aa826114bf565b6111b48185611500565b93506111bf836114a4565b8060005b838110156111f05781516111d78882611169565b97506111e2836114e2565b9250506001810190506111c3565b5085935050505092915050565b6000611208826114b4565b61121281856114ef565b935061121d83611494565b8060005b8381101561124e5781516112358882611169565b9750611240836114d5565b925050600181019050611221565b5085935050505092915050565b61126481611545565b82525050565b6000611275826114ca565b61127f8185611511565b935061128f81856020860161158a565b611298816115bd565b840191505092915050565b60006112ae826114ca565b6112b88185611522565b93506112c881856020860161158a565b6112d1816115bd565b840191505092915050565b600060a0830160008301516112f46000860182611181565b506020830151848203602086015261130c828261126a565b91505060408301518482036040860152611326828261126a565b91505060608301518482036060860152611340828261126a565b9150506080830151848203608086015261135a82826111fd565b9150508091505092915050565b600060208201905061137c6000830184611190565b92915050565b60006080820190506113976000830187611190565b81810360208301526113a981866112a3565b905081810360408301526113bd81856112a3565b905081810360608301526113d181846112a3565b905095945050505050565b600060208201905081810360008301526113f6818461119f565b905092915050565b6000602082019050611413600083018461125b565b92915050565b6000602082019050818103600083015261143381846112dc565b905092915050565b6000604051905081810181811067ffffffffffffffff8211171561145e57600080fd5b8060405250919050565b600067ffffffffffffffff82111561147f57600080fd5b601f19601f8301169050602081019050919050565b6000819050602082019050919050565b6000819050602082019050919050565b600081519050919050565b600081519050919050565b600081519050919050565b6000602082019050919050565b6000602082019050919050565b600082825260208201905092915050565b600082825260208201905092915050565b600082825260208201905092915050565b600082825260208201905092915050565b600061153e82611551565b9050919050565b60008115159050919050565b600073ffffffffffffffffffffffffffffffffffffffff82169050919050565b6000819050919050565b82818337600083830152505050565b60005b838110156115a857808201518184015260208101905061158d565b838111156115b7576000848401525b50505050565b6000601f19601f8301169050919050565b6115d781611533565b81146115e257600080fd5b50565b6115ee81611571565b81146115f957600080fd5b5056fea2646970667358221220df1370c4513c370101af096cf2fa8ac4fee980a4653385704db71af99cbddf1364736f6c63430006010033",
  "source": "pragma solidity >= 0.4.0 <0.7.0 ;\npragma experimental ABIEncoderV2;\n\ncontract KYC {\naddress govt;\n\n\n//Strunct to define the citizen attributes\nstruct citizensDetails {\n    address id;\n    string name;\n    string aadhar;\n    string homeAddr;\n    address[] allowed;\n    }\n\nmapping(address => citizensDetails) public kycDatabase;\naddress[] public citizensAdded;\nuint counter;\n//event LogCitizenAddr(address _addr);\n\nconstructor () public {\n    govt = msg.sender;\n    }\n\nfunction addCitezenDetails(address _id,string memory _name, string memory _aadhar,string memory _homeAddr) public  returns (bool success) {\n    citizensDetails memory citizensDetail;\n\n    citizensDetail.id = _id; //msg.sender;\n    citizensDetail.name = _name;\n    citizensDetail.aadhar = _aadhar;\n    citizensDetail.homeAddr = _homeAddr;\n \n    kycDatabase[_id] =citizensDetail;\n    citizensAdded.push(_id);\n    //counter++\n    return true;\n    }\n\n//Functrion to set allowed address to be retrieved by thirdparty \nfunction addAllowed(address _id) public  returns (bool success) {\n    kycDatabase[msg.sender].allowed.push(_id);\n    return true;\n    }\n\n//Function to get all citizen address for reference by govt\nfunction getAllCitizenAddress() view public  returns(address[] memory){\n    return citizensAdded;\n    }\n\n//Function to get Citizen details by addresss by govt\nfunction getCitizenDetailsbyAddress(address _id) view public  returns (citizensDetails memory ){\n      return kycDatabase[_id];\n    }\n\n\n// Function to get single user details - havea a condition to check if msg sender is there in allowed array for thirdparty\n\n    function getCitizenAddrbyChecking(address _id) view public returns (citizensDetails memory ){ \n       for(uint i = 0; i < citizensAdded.length; i++) {\n     if(kycDatabase[_id].allowed[i] == msg.sender) {\n       return kycDatabase[_id];\n        }\n     }\n}   \n\n}",
  "sourcePath": "C:/Emurgo-Etherium/Final_Project/contracts/KYC.sol",
  "compiler": {
    "name": "solc",
    "version": "0.6.1+commit.e6f7d5a4.Emscripten.clang"
  },
  "schemaVersion": "3.0.22",
  "updatedAt": "2020-04-10T11:10:31.454Z",
  "devdoc": {
    "methods": {}
  },
  "userdoc": {
    "methods": {}
  }
}